:100000000C945D000C9485000C9485000C94850084
:100010000C9485000C9485000C9485000C9485004C
:100020000C9485000C9485000C9485000C9485003C
:100030000C9485000C9485000C9485000C9485002C
:100040000C9418030C9485000C9485000C94850086
:100050000C9485000C9485000C9485000C9485000C
:100060000C9485000C9485000000000024002700FB
:100070002A0000000000250028002B0004040404CE
:100080000404040402020202020203030303030342
:10009000010204081020408001020408102001021F
:1000A00004081020000000080002010000030407FB
:1000B0000000000000000000790511241FBECFEFF2
:1000C000D8E0DEBFCDBF11E0A0E0B1E0E6EFFFE099
:1000D00002C005900D92A034B107D9F721E0A0E449
:1000E000B1E001C01D92A736B207E1F710E0CDE5FF
:1000F000D0E004C02197FE010E94F307CC35D10760
:10010000C9F70E9462030C94F9070C940000AF92A7
:10011000BF92CF92DF92EF92FF920F931F93CF93F4
:10012000DF936C017B018B01040F151FEB015E0156
:10013000AE18BF08C017D10759F06991D601ED91EB
:10014000FC910190F081E02DC6010995892B79F78A
:10015000C501DF91CF911F910F91FF90EF90DF903C
:10016000CF90BF90AF90089590E0FC01EC55FF4F09
:100170002491FC01E057FF4F3491FC01E458FF4FFC
:10018000E491EE23C9F0222339F0233001F1A8F4E1
:10019000213019F1223029F1F0E0EE0FFF1FEE5867
:1001A000FF4FA591B4918FB7F894EC91611126C0DF
:1001B00030953E233C938FBF08952730A9F0283017
:1001C000C9F0243049F7809180008F7D03C0809171
:1001D00080008F7780938000DFCF84B58F7784BDD8
:1001E000DBCF84B58F7DFBCF8091B0008F7780937C
:1001F000B000D2CF8091B0008F7DF9CF3E2BDACF07
:10020000CF93DF9390E0FC01E057FF4F2491845897
:100210009F4FFC0184918823D1F090E0880F991FB3
:10022000FC01E859FF4FA591B491FC01EE58FF4F36
:10023000C591D49161110EC09FB7F8948C91E22FB3
:10024000E0958E238C932881E223E8839FBFDF9182
:10025000CF9108958FB7F894EC91E22BEC938FBF78
:10026000F6CF3FB7F8948091450190914601A09157
:100270004701B091480126B5A89B05C02F3F19F052
:100280000196A11DB11D3FBFBA2FA92F982F882716
:10029000BC01CD01620F711D811D911D42E0660FF1
:1002A000771F881F991F4A95D1F70895089590E008
:1002B00080E0089580E480937C0080917A008064DF
:1002C00080937A0080917A0086FDFCCF809178003F
:1002D00060917900762F682F072E000C880B990B00
:1002E0000E94AA0620E030EC4FE754E40E94070683
:1002F00020E030E040EA50E40E945F070895FC01EE
:1003000001900020E9F73197AF01481B590BBC0160
:100310008FE491E00C9487008F929F92AF92BF92EE
:100320000F931F93CF93DF93CDB7DEB7A1970FB68F
:10033000F894DEBF0FBECDBF19A2423008F44AE0E8
:100340008E010F5D1F4F842E912CB12CA12CA50185
:1003500094010E94D107E62FB901CA01EA30F4F4F2
:10036000E05DD801EE938D01232B242B252B79F70B
:1003700090E080E0109719F0CD010E947F01A196D6
:100380000FB6F894DEBF0FBECDBFDF91CF911F91A6
:100390000F91BF90AF909F908F900895E95CE1CF4F
:1003A000CF93DF93EC0160E08E810E94B40061E0A6
:1003B0008E810E94B40060E08E810E94B4008BE8C0
:1003C00091E00197F1F7DF91CF910895CF92DF92FD
:1003D000EF92FF920F931F93CF93DF936C017C01F9
:1003E00087E0E80EF11CD0E0C0E0062F10E0B80175
:1003F0000C2E02C0759567950A94E2F76170F701BB
:1004000081917F010E94B4002196C430D10579F713
:10041000C601DF91CF911F910F91FF90EF90DF9078
:10042000CF900C94D001CF92DF92EF92FF920F9376
:100430001F93CF93DF93EC01F62E642F8C810E94E3
:10044000B4008D818F3F19F060E00E94B4000F2D41
:1004500010E08F8584FF25C06E0187E0C80ED11C97
:10046000F12CE12CB8010E2C02C0759567950A9409
:10047000E2F76170F60181916F010E94B400FFEF15
:10048000EF1AFF0A88E0E816F10461F7CE01DF9168
:10049000CF911F910F91FF90EF90DF90CF900C9430
:1004A000D001B80184E0759567958A95E1F7CE0192
:1004B0000E94E6016F2DCE01DF91CF911F910F9128
:1004C000FF90EF90DF90CF900C94E60140E0682F12
:1004D0008FE491E00C941302CF93DF93823029F4E0
:1004E00090915E01986090935E01809362011092FA
:1004F000630180E48093640180E18093650180E57D
:100500008093660161E0809153010E940001809117
:1005100054018F3F19F061E00E94000161E0809179
:1005200055010E940001CFE4D1E09E012F543140DB
:1005300080915E0184FD0BC084E090E02196281735
:10054000390744F461E08E810E940001EECF88E01B
:1005500090E0F4CF8BE39DE00197F1F760E08091AC
:1005600053010E94B40060E0809155010E94B400E4
:10057000809154018F3F19F060E00E94B400809197
:100580005E0184FD39C063E08FE491E00E94E601E2
:10059000CBE4D6E4CE010197F1F763E08FE491E07C
:1005A0000E94E6012197F1F763E08FE491E00E9459
:1005B000E60183E592E00197F1F762E08FE491E0D4
:1005C0000E94E60180915E0180620E94660284E0E2
:1005D00080935F018CE00E94660281E00E946602C7
:1005E0008BE39FE10197F1F782E08093600186E061
:1005F000DF91CF910C94660280620E9466028BE4C8
:1006000096E40197F1F780915E0180620E94660294
:1006100083E592E00197F1F780915E0180620E948C
:100620006602D0CF41E00E94130281E090E008957D
:100630001F920F920FB60F9211242F933F938F9317
:100640009F93AF93BF938091410190914201A091FC
:100650004301B09144013091400123E0230F2D3735
:1006600058F50196A11DB11D2093400180934101D1
:1006700090934201A0934301B093440180914501BE
:1006800090914601A0914701B09148010196A11DAA
:10069000B11D8093450190934601A0934701B0930B
:1006A0004801BF91AF919F918F913F912F910F90F2
:1006B0000FBE0F901F90189526E8230F0296A11DDC
:1006C000B11DD2CF789484B5826084BD84B5816039
:1006D00084BD85B5826085BD85B5816085BD80910D
:1006E0006E00816080936E00109281008091810085
:1006F000826080938100809181008160809381007D
:10070000809180008160809380008091B10084603E
:100710008093B1008091B00081608093B00080919F
:100720007A00846080937A0080917A00826080935E
:100730007A0080917A00816080937A0080917A00BB
:10074000806880937A001092C10082E00E946C025F
:1007500060E08EE00E94000161E086E00E940001FE
:1007600061E085E00E94000161E084E00E940001F8
:1007700092E3292E312C20E0822E20E0922EC9E136
:10078000D0E002E010E0AA24A394B12C61E086E05E
:100790000E94B40061E085E00E94B40060E084E063
:1007A0000E94B4000E945A0120E03CE447E457E470
:1007B0000E945F0720E030E04FE754E40E94070604
:1007C00060934B0170934C0180934D0190934E01C7
:1007D00030924A012092490120E030E048EC52E496
:1007E0000E94020687FF62C060E086E00E94B400BB
:1007F0000E945A0120E036E94DEC56E40E945F0762
:1008000020E030E644EA54E40E94070660934B017E
:1008100070934C0180934D0190934E01D0934A0107
:10082000C093490120E030E040E251E40E9402061A
:1008300087FF3CC061E086E00E94B40060E085E094
:100840000E94B4000E945A0120E030E44CE956E4D2
:100850000E945F0720E030E44CE156E40E94070666
:1008600060934B0170934C0180934D0190934E0126
:1008700010934A010093490120E030E040EA50E43F
:100880000E94020687FF12C060E086E00E94B4006A
:100890000E945A0160934B0170934C0180934D016B
:1008A00090934E01B0924A01A0924901E1E08091FB
:1008B00062018111E0E0E195F0E0E15BFE4F8489A7
:1008C00080680E9466028CE091E00E947F01E1E076
:1008D000809162018111E0E0E195F0E0E15BFE4F83
:1008E000848980680E946602C0904B01D0904C01C0
:1008F000E0904D01F0904E01A7019601C701B601AD
:100900000E94CC07882309F45EC089E291E00E942E
:100910007F01E0916201E23008F0E9C0E150F0E0CF
:10092000E15BFE4F848980680E94660285E391E066
:100930000E947F01C0904901D0904A010D2C000C0B
:10094000EE08FF084AE0C701B601F7FE0EC041E01D
:100950006DE28FE491E00E94130266277727CB01B6
:100960006C197D098E099F094AE00E948C010E9442
:1009700031012B013C018CE2C82EDD24D394E12C03
:10098000F12C0E9431016419750986099709683EA6
:10099000734081059105A8F321E0C21AD108E1084E
:1009A000F10888EE480E83E0581E611C711CC114CA
:1009B000D104E104F10429F78114910409F4E6CE8D
:1009C0000E940000E3CE26013701E89477F82FEF6C
:1009D0003FEF4FE75FE7C301B2010E94CC078111EF
:1009E0000DC02FEF3FEF4FE75FE7C301B2010E9459
:1009F000020618161CF48DE291E089CF2FEF3FEF2D
:100A00004FE75FE4C701B6010E945A0718161CF4AD
:100A100081E391E07CCF2FEF3FEF4FE75FECC70121
:100A2000B6010E94020687FDF3CF20E030E0A90165
:100A3000C701B6010E94020687FF0AC041E06DE2CD
:100A40008FE491E00E941302F7FAF094F7F8F09423
:100A50002AE037ED43EA5BE3C701B6010E94960541
:100A60002B013C010E9479066B017C010E94A806C3
:100A70009B01AC01C301B2010E9495052B013C0111
:100A80004AE0C701B6010E948C0141E06EE28FE4AA
:100A900091E00E94130220E030E040E251E4C30103
:100AA000B2010E945F072B013C010E9479066B0195
:100AB000F12CE12C4AE0C701B6010E948C01C7016C
:100AC000B6010E94A8069B01AC01C301B2010E94BD
:100AD000950520E030E040E251E40E945F070E946B
:100AE000790690E080E04AE00E948C0112CFE1E0BC
:100AF00016CFEFE4F1E01382128284E091E091835B
:100B000080838CE084838FEF85838BE0868383E012
:100B1000878382E0808781E081871286138614862E
:100B20001586168617860C946C025058BB27AA2788
:100B30000E94AD050C9420070E94120738F00E9415
:100B4000190720F039F49F3F19F426F40C940F078D
:100B50000EF4E095E7FB0C940907E92F0E9431079A
:100B600058F3BA17620773078407950720F079F4E2
:100B7000A6F50C9453070EF4E0950B2EBA2FA02D7A
:100B80000B01B90190010C01CA01A0011124FF273A
:100B9000591B99F0593F50F4503E68F11A16F04035
:100BA000A22F232F342F4427585FF3CF4695379534
:100BB0002795A795F0405395C9F77EF41F16BA0BF9
:100BC000620B730B840BBAF09150A1F0FF0FBB1FA7
:100BD000661F771F881FC2F70EC0BA0F621F731FF0
:100BE000841F48F4879577956795B795F7959E3F4D
:100BF00008F0B0CF9395880F08F09927EE0F9795DE
:100C0000879508950E94E50608F481E008950E9402
:100C10001B060C9420070E94190758F00E94120727
:100C200040F029F45F3F29F00C94090751110C940E
:100C300054070C940F070E94310768F39923B1F30E
:100C4000552391F3951B550BBB27AA2762177307F2
:100C5000840738F09F5F5F4F220F331F441FAA1F86
:100C6000A9F335D00E2E3AF0E0E832D09150504042
:100C7000E695001CCAF72BD0FE2F29D0660F771FF0
:100C8000881FBB1F261737074807AB07B0E809F0D6
:100C9000BB0B802DBF01FF2793585F4F3AF09E3F5B
:100CA000510578F00C9409070C9454075F3FE4F366
:100CB000983ED4F3869577956795B795F7959F5F9E
:100CC000C9F7880F911D9695879597F90895E1E0EA
:100CD000660F771F881FBB1F621773078407BA0749
:100CE00020F0621B730B840BBA0BEE1F88F7E095A4
:100CF00008950E94390788F09F5798F0B92F9927D7
:100D0000B751B0F0E1F0660F771F881F991F1AF0F6
:100D1000BA95C9F714C0B13091F00E945307B1E001
:100D200008950C945307672F782F8827B85F39F000
:100D3000B93FCCF3869577956795B395D9F73EF48F
:100D400090958095709561957F4F8F4F9F4F089537
:100D5000E89409C097FB3EF4909580957095619555
:100D60007F4F8F4F9F4F9923A9F0F92F96E9BB270B
:100D70009395F695879577956795B795F111F8CF87
:100D8000FAF4BB0F11F460FF1BC06F5F7F4F8F4FF2
:100D90009F4F16C0882311F096E911C0772321F0E8
:100DA0009EE8872F762F05C0662371F096E8862F80
:100DB00070E060E02AF09A95660F771F881FDAF7D7
:100DC000880F9695879597F90895990F0008550F04
:100DD000AA0BE0E8FEEF16161706E807F907C0F0C1
:100DE00012161306E407F50798F0621B730B840BC9
:100DF000950B39F40A2661F0232B242B252B21F4A3
:100E000008950A2609F4A140A6958FEF811D811D42
:100E1000089597F99F6780E870E060E008959FEF7C
:100E200080EC089500240A94161617061806090681
:100E3000089500240A941216130614060506089550
:100E4000092E0394000C11F4882352F0BB0F40F4D8
:100E5000BF2B11F460FF04C06F5F7F4F8F4F9F4F18
:100E6000089557FD9058440F551F59F05F3F71F09A
:100E70004795880F97FB991F61F09F3F79F0879501
:100E80000895121613061406551FF2CF4695F1DF8A
:100E900008C0161617061806991FF1CF869571051A
:100EA000610508940895E894BB2766277727CB014E
:100EB00097F908950E94E50608F48FEF08950E94BF
:100EC00072070C9420070E94120738F00E9419073D
:100ED00020F0952311F00C9409070C940F071124AE
:100EE0000C9454070E94310770F3959FC1F3950F3E
:100EF00050E0551F629FF001729FBB27F00DB11D9E
:100F0000639FAA27F00DB11DAA1F649F6627B00D2D
:100F1000A11D661F829F2227B00DA11D621F739F16
:100F2000B00DA11D621F839FA00D611D221F749F24
:100F30003327A00D611D231F849F600D211D822F6B
:100F4000762F6A2F11249F5750409AF0F1F0882392
:100F50004AF0EE0FFF1FBB1F661F771F881F9150BF
:100F60005040A9F79E3F510580F00C9409070C945E
:100F700054075F3FE4F3983ED4F3869577956795E1
:100F8000B795F795E7959F5FC1F7FE2B880F911DE9
:100F90009695879597F908950E94E506880B990B19
:100FA0000895A1E21A2EAA1BBB1BFD010DC0AA1FAA
:100FB000BB1FEE1FFF1FA217B307E407F50720F0C2
:100FC000A21BB30BE40BF50B661F771F881F991F3D
:100FD0001A9469F760957095809590959B01AC0186
:100FE000BD01CF010895EE0FFF1F0590F491E02D94
:060FF0000994F894FFCF04
:100FF6000000000012038700570156012020202020
:1010060020202020202020202020202020202020DA
:101016002020202020202020006E616E00696E6650
:10102600006F76660044697669646572206B3D00E0
:00000001FF
